:020000040800F2
:10000000788B0020050200080D0200080F0200088E
:100010001102000813020008150200080000000089
:100020000000000000000000000000004501000882
:100030001902000800000000D7010008E7010008CD
:100040001F0200081F0200081F0200081F0200080C
:100050001F0200081F0200081F0200081F020008FC
:100060001F0200081F0200081F0200081F020008EC
:100070001F0200081F0200081F0200081F020008DC
:100080001F0200081F0200081F0200081F020008CC
:100090001F0200081F0200081F0200081F020008BC
:1000A0001F0200081F0200081F0200081F020008AC
:1000B0001F0200081F0200081F0200081F0200089C
:1000C0001F0200081F0200081F0200081F0200088C
:1000D0001F020008C92600081F0200081F020008AE
:1000E0001F0200081F0200081F0200081F0200086C
:1000F0001F0200081F0200081F0200081F0200085C
:100100001F0200081F0200081F0200081F0200084B
:100110001F0200081F0200081F0200081F0200083B
:100120001F0200081F0200081F0200081F0200082B
:10013000DFF80CD000F008FB004800475D350008F0
:10014000788B00201EF0040F0CBFEFF30880EFF354
:100150000980816911F8021C00292ED101B590E8AF
:100160000F10E047BDE80050CCF80000224B93E8A8
:100170000600914208BF70471A60A9B1ACF1200C8B
:10018000C1F838C006B4084604F07CFB06BC38B998
:10019000012003F079FB194B5A681A60002103E033
:1001A000D1F838C08CE8F00F1400A06B6FF0020E8D
:1001B000B0E8F00F80F309887047114A136899423C
:1001C000FAD801B552F821C00FC8E047BDE8005089
:1001D000CCF80000704701B503F0FCFEBDE801401B
:1001E000EFF3098CC2E701B504F02EFCBDE8014035
:1001F000EFF3098CBAE7000024000020240000205F
:100200002C5603080648804706480047FEE7FEE7ED
:10021000FEE7FEE7FEE7FEE7FEE7FEE7FEE7FEE7B6
:10022000352100083101000840EA01039B0703D093
:1002300009E008C9121F08C0042AFAD203E011F825
:10024000013B00F8013B521EF9D27047D2B201E0E7
:1002500000F8012B491EFBD270470022F6E710B5CB
:1002600013460A4604461946FFF7F0FF204610BD24
:100270002DE9FE4F81EA030404F0004421F000411F
:1002800000944FF0000B23F0004350EA01045ED0CD
:1002900052EA03045BD0C3F30A54C1F30A552C4459
:1002A000A4F2F3340194A0FB0254C1F3130141F40E
:1002B0008011C3F3130343F4801301FB024400FBDA
:1002C000034E840A970A44EA815447EA8357A4FB01
:1002D000076802958D0A05FB07854FEA932C04FBFE
:1002E0000C542705029D4FEA065847EA1637B5EB2E
:1002F00008056EEB070C870E920E47EA811742EA5B
:100300008312A7FB0201B6EB0B0164EB00042B0D7B
:1003100043EA0C335E1844EB1C50DA465146E7FBC7
:100320000201C5F313044FEA0B3343EA14534FEAB7
:100330000432019C43EA0603A4F10C040294009CDD
:10034000CDE900B400F06CF803B0BDE8F08F0020F8
:100350000146F9E730B50B46014600202022012472
:1003600009E021FA02F59D4205D303FA02F5491B83
:1003700004FA02F52844151EA2F10102F1DC30BD99
:100380002DE9F05F0546002092469B4688460646CA
:10039000814640241BE0284641464746224600F05D
:1003A00020F853465A46C01A914110D311461846B8
:1003B000224600F0E1F92D1A67EB01084F4622466C
:1003C0000120002100F0D8F917EB00094E41201E52
:1003D000A4F10104DFDC484631462A464346BDE825
:1003E000F09F202A04DB203A21FA02F00021704716
:1003F00021FA02F3D040C2F120029140084319468D
:10040000704710B5141E73F1000408DA401C41F166
:10041000000192185B411A4301D120F0010010BD88
:100420002DE9F04D92469B4611B1B1FA81F202E0FE
:10043000B0FA80F22032904600F09EF904460F4652
:1004400040EA0A0041EA0B0153465A46084313D0DA
:10045000114653EA010019D0C8F140025046FFF797
:10046000C0FF05460E4650465946424600F084F904
:10047000084305D0012004E020463946BDE8F08D50
:100480000020054346EAE0762C4337430A9863058B
:10049000E40AA0EB08000022FD0A44EA47540A30AF
:1004A00002D500200146E9E7010510196941DDE99F
:1004B000084500196941BDE8F04DA2E72DE9FE4F5E
:1004C000804681EA0300C00F0C46009021F00041F5
:1004D00023F00045B8EB0200A94105D24046214671
:1004E00090461C460B46024623F00040104347D07E
:1004F000270DC7F30A00C3F30A510290401A019076
:1005000040286BDAC3F3130040F4801B0098924636
:1005100020B10023D2EB030A63EB0B0B0198594681
:10052000C0F14002504600F027F906460D465046FD
:100530005946019A00F02FF910EB080061410024A0
:1005400087EA115284EAE7731A4340D0009A62B3F3
:10055000019A012A4FEA075215DC001B61EB0201E8
:100560004FF0004202EA0752CDE90042001C41F57B
:10057000801132462B46FFF753FF03B0BDE8F08FE2
:1005800040462146F9E7001B61EB0201001C41F5E2
:10059000801300185B412018A2F5001747EB0301F8
:1005A00040EAD570B6196D4111E06D084FEA360684
:1005B00045EAC0754FEA0752001B61EB0201001CBF
:1005C00041F5801149084FEA300000195141324687
:1005D0002B4603B0BDE8F04FFFF713BF0098012290
:1005E00040000023D0EB020263EBE0730098214649
:1005F0004FEAE074B8EB000061EB0401E9E783F037
:1006000000435BE781F0004158E72DE9F04D81EAB6
:10061000030404F0004B21F0004514464FF0000A9B
:1006200023F0004150EA050220D054EA01021DD017
:10063000C5F30A570246C5F31303C1F31300C1F310
:100640000A5640F4801543F48013A7EB0608101BEC
:10065000D64608F2FD3873EB050002D308F1010815
:1006600001E092185B41B8F1000F03DA0020014667
:10067000BDE8F08D00204FF48011064684460EE060
:10068000171B73EB050705D3121B63EB050306432A
:100690004CEA010C49084FEA300092185B4150EADD
:1006A0000107EDD152EA030012D082EA040083EA86
:1006B0000501084305D0101BAB4106D201220023DF
:1006C00006E000224FF0004302E06FF001025310F9
:1006D0001AEB06004CEB085110EB0A0041EB0B0142
:1006E000BDE8F04DFFF78DBEC1F30A52C1F313010F
:1006F00040F2FF3341F480119A4202DA00200146B1
:10070000704740F233439A42A2F2334202DC524233
:10071000FFF767BE00F030B830B5041E71F1000479
:1007200004DB4FF00044404264EB0101141E73F1FE
:10073000000405DB1C464FF00043524263EB040308
:10074000994208BF904230BD1CB509480090094845
:1007500001900546009C06E0E06840F0010394E843
:10076000070098471034AC42F6D3FFF7E5FC0000D1
:100770006C5703088C570308202A04DB203A00FA40
:1007800002F1002070479140C2F1200320FA03F3E8
:10079000194390407047202A06DBCB17203A41FAD4
:1007A00002F043EAE07306E041FA02F3D040C2F1FE
:1007B00020029140084319467047000081B0009024
:1007C00001B0704781B0009001B0704781B00090D7
:1007D00001B0704781B0009001B0704781B00090C7
:1007E00001B0704781B0009001B0704782B00190B5
:1007F000009102B070470000704700007047000091
:10080000704700007047000084B00390029101928D
:10081000009304B07047000082B00190009102B0D4
:100820007047000083B002900191009203B07047BE
:1008300084B0039002910192009304B070470000CD
:1008400083B002900191009203B0704783B0029090
:100850000191009203B0704781B0009001B07047E1
:1008600082B00190009102B07047000082B0019008
:10087000009102B07047000084B003900291019291
:10088000009304B07047000083B002900191009281
:1008900003B0704781B0009001B0704782B0019002
:1008A000009102B07047000082B00190009102B048
:1008B0007047000082B00190009102B070470000C4
:1008C00082B00190009102B07047000084B00390A4
:1008D00002918DF80720009304B0704783B0029016
:1008E0000191009203B0704781B0009001B0704751
:1008F00082B00190009102B07047000081B000907A
:1009000001B0704782B00190009102B070470000C2
:1009100082B00190009102B07047000081B0009059
:1009200001B0704782B00190009102B070470000A2
:1009300083B002900191009203B0704781B00090A3
:1009400001B0704782B00190009102B07047000082
:100950007047000084B0039002910192009304B0AC
:100960007047000081B0009001B0704781B00090E6
:1009700001B0704783B002900191009203B07047BC
:1009800081B0009001B0704781B0009001B0704715
:1009900082B00190009102B07047000082B00190D7
:1009A000009102B07047000082B001908DF80310F2
:1009B0009DF8030050B1FFE7019A4FF0204151F834
:1009C000220040F0010041F822000CE0019A4FF0B3
:1009D000204151F822004FF6FE73C0F20F03184079
:1009E00041F82200FFE702B07047000080B582B0F6
:1009F0000190019900910A684868D1F808C0CB6855
:100A000040EA0C0018430B6918434B6918438B6983
:100A10001843CB6918430B6A18434B6A18438B6A17
:100A20001843CB6A1843096B08434FF0204141F843
:100A300022000198806808280BD1FFE7019802681E
:100A40004FF0204151F8220040F0400041F82200D0
:100A5000FFE701980268416B0868D1F804E0D1F81B
:100A600008C0CB6840EA0E1040EA0C2040EA034080
:100A70000B6940EA03504B6940EA03608969084307
:100A80000421CAF2000141F822000198C06AB0F5C1
:100A9000804F1BD1FFE701980268816B0868D1F88D
:100AA00004E0D1F808C00B6940EA0E1040EA0C20BF
:100AB00040EA03504B6940EA03608969084340F209
:100AC0000411CAF2000141F822000AE0019802680C
:100AD00040F20411CAF200016FF0704041F82200A8
:100AE000FFE702B080BD000088B0079006910020AB
:100AF0000590049003900290019000900698C078B1
:100B000000F00F0005900698C078C006002806D5B2
:100B1000FFE706988178059808430590FFE7069857
:100B2000007800284BD0FFE707980068019000206C
:100B30000390FFE7039807283DD8FFE703990120BA
:100B40008840029006980088029908400490049812
:100B5000029988422AD1FFE7039880000290029907
:100B60000F208840009000990198884301900598D3
:100B7000029900FA01F10198084301900698C078A3
:100B8000282806D1FFE7039901208840079948618A
:100B90000BE00698C078482806D1FFE703990120AA
:100BA000884007990861FFE7FFE7FFE7FFE7039841
:100BB00001300390BEE7019807990860FFE70698A7
:100BC0000088B0F5807F50DBFFE707984068019010
:100BD00000200390FFE70398072842D8FFE7039817
:100BE00000F10801012088400290069800880299CF
:100BF000084004900498029988422DD1FFE7039899
:100C00008000029002990F2088400090009901987E
:100C1000884301900598029900FA01F10198084370
:100C200001900698C078282808D1FFE7039800F1C2
:100C300008010120884007994861FFE70698C078BD
:100C4000482808D1FFE7039800F1080101208840F7
:100C500007990861FFE7FFE7FFE70398013003907A
:100C6000B9E7019807994860FFE708B070470000AE
:100C700082B00190ADF8021000208DF801000198BB
:100C80008068BDF80210084204D0FFE701208DF80B
:100C9000010003E000208DF80100FFE79DF801004E
:100CA00002B0704781B0EFF30580009000980028F3
:100CB00018BF012001B0704781B0EFF305800090AC
:100CC0000098002818BF012001B0704781B0EFF3F1
:100CD000058000900098002818BF012001B07047DF
:100CE00081B0EFF3058000900098002818BF012024
:100CF00001B0704783B0EFF310800190019901209B
:100D0000009049B9FFE7EFF31180029002980028A4
:100D100018BF01200090FFE7009800F0010003B029
:100D20007047000083B0EFF310800190019901201B
:100D3000009049B9FFE7EFF3118002900298002874
:100D400018BF01200090FFE7009800F0010003B0F9
:100D50007047000083B0EFF31080019001990120EB
:100D6000009049B9FFE7EFF3118002900298002844
:100D700018BF01200090FFE7009800F0010003B0C9
:100D80007047000083B0EFF31080019001990120BB
:100D9000009049B9FFE7EFF3118002900298002814
:100DA00018BF01200090FFE7009800F0010003B099
:100DB0007047000082B00090009820B9FFE7002043
:100DC0008DF8070003E001208DF80700FFE79DF88C
:100DD000070002B07047000082B00090009820B970
:100DE000FFE700208DF8070003E001208DF80700E1
:100DF000FFE79DF8070002B07047000080B584B09F
:100E000040F60000C4F201000121FFF731FF8DF828
:100E10000E0041F60000C4F2010001901021FFF71E
:100E200027FF014601988DF80D100821FFF720FFDC
:100E3000014601988DF80C100421FFF719FF8DF879
:100E40000B009DF80E0001280CD0FFE79DF80D0067
:100E500040B1FFE79DF80C0020B1FFE79DF80B00C3
:100E600028BBFFE79DF80E00012804D1FFE7012011
:100E70008DF80F001FE09DF80D0020B9FFE702205C
:100E80008DF80F0017E09DF80C0020B9FFE7032054
:100E90008DF80F000FE09DF80B0020B9FFE704204C
:100EA0008DF80F0007E0FFE7FFE7FFE7FFE700200F
:100EB0008DF80F00FFE79DF80F0004B080BD000023
:100EC00080B584B0ADF80E0048F26870C2F2000040
:100ED00001880139408801388AB283B2002101912A
:100EE000084600F0A9F90198ADF80C00FFE7BDF83D
:100EF0000C0048F26871C2F200010988884220DAC9
:100F0000FFE70020ADF80A00FFE7BDF80A0048F24D
:100F10006871C2F20001498888420BDAFFE7BDF828
:100F20000E0000F0A5FCFFE7BDF80A000130ADF8A7
:100F30000A00EAE7FFE7BDF80C000130ADF80C004D
:100F4000D5E704B080BD000080B582B08DF8070001
:100F50009DF8070048F26871C2F2000188719DF89F
:100F6000070088B9FFE7362000F06AFC002000F097
:100F700073FC48F26871C2F200014FF4F0704880CF
:100F80004FF4A070088010E0362000F059FC60207B
:100F900000F062FC48F26871C2F200014FF4A070E8
:100FA00048804FF4F0700880FFE702B080BD000079
:100FB00080B582B0ADF80600ADF80410ADF802209F
:100FC000BDF80620BDF804301046194600F034F98B
:100FD000BDF8020000F04CFC02B080BD80B58CB0C2
:100FE000ADF82E00ADF82C10ADF82A20ADF8283061
:100FF000002008900790BDF82A00BDF82E10401A76
:101000000690BDF82800BDF82C10401A0590BDF8D8
:101010002E000190BDF82C0000900698012803DBFB
:10102000FFE7012003900DE0069818B9FFE70020C4
:10103000039006E04FF0FF30039006984042069080
:10104000FFE7FFE70598012803DBFFE70120029097
:101050000DE0059818B9FFE70020029006E04FF078
:10106000FF300290059840420590FFE7FFE70698A1
:101070000599884203DDFFE70698049002E0059891
:101080000490FFE70020ADF82600FFE7BDF826003A
:1010900004990131884231DCFFE7BDF80400BDF856
:1010A000001000F02DF8069908980844089005995A
:1010B00007980844079008980499884209DDFFE7DB
:1010C00004990898401A08900399019808440190DF
:1010D000FFE707980499884209DDFFE7049907981C
:1010E000401A07900299009808440090FFE7FFE734
:1010F000BDF826000130ADF82600C7E70CB080BD72
:1011000080B582B0ADF80600ADF80410BDF8062039
:10111000BDF804301046194600F08EF840F2B800D1
:10112000C2F20000008800F0A3FB02B080BD000006
:1011300080B582B0ADF80600ADF80410ADF802201D
:10114000ADF80030BDF80600BDF80430BDF802204F
:101150001946FFF743FFBDF80620BDF80410BDF89F
:1011600000301046FFF73AFFBDF80600BDF800302A
:10117000BDF802201946FFF731FFBDF80220BDF887
:101180000410BDF800301046FFF728FF02B080BD04
:1011900080B584B084460698ADF80EC0ADF80C104A
:1011A000ADF80A20ADF80830ADF80600BDF80E0025
:1011B000BDF80A10884207DCFFE7BDF80C00BDF857
:1011C0000810884201DDFFE733E0BDF80E00BDF8EE
:1011D0000C10BDF80A20BDF8083000F02DF8BDF85D
:1011E0000A00BDF80E10401A0130ADF80E00BDF82F
:1011F0000800BDF80C10401A0130ADF80C00FFE7F4
:10120000BDF80E00411EADF80E1090B1FFE7BDF81D
:101210000C00ADF80400FFE7BDF80400411EADF876
:10122000041028B1FFE7BDF8060000F021FBF3E74A
:10123000E6E704B080BD000080B582B0ADF80600DE
:10124000ADF80410ADF80220ADF800302A2000F00F
:10125000F7FA9DF8070000F0FFFA9DF8060000F08D
:10126000FBFA9DF8030000F0F7FA9DF8020000F089
:10127000F3FA2B2000F0E4FA9DF8050000F0ECFAF8
:101280009DF8040000F0E8FA9DF8010000F0E4FA8F
:101290009DF8000000F0E0FA2C2000F0D1FA02B036
:1012A00080BD000080B584B084460698ADF80EC0BD
:1012B000ADF80C108DF80B208DF80A308DF8090070
:1012C000BDF80C00ADF804009DF80A10C808012212
:1012D00002EBD1024B07002B18BF104649084843C8
:1012E0008DF803009DF80B0020388DF80B000020CE
:1012F0008DF80600FFE79DF806009DF80310884270
:1013000080F2C380FFE79DF80A000C2810D1FFE7A8
:101310009DF80B0000EB400146F6EA30C0F60000F5
:1013200000EB81009DF80610405C8DF808003EE05F
:101330009DF80A0010280ED1FFE79DF80B1047F228
:101340005E00C0F6000000EB01109DF80610405C46
:101350008DF808002AE09DF80A00182810D1FFE750
:101360009DF80B0000EBC00147F24E60C0F6000094
:1013700000EB81009DF80610405C8DF8080014E039
:101380009DF80A0020280ED1FFE79DF80B1048F2C7
:10139000AA30C0F6000000EBC1109DF80610405CBA
:1013A0008DF8080000E070E0FFE7FFE7FFE70020AE
:1013B0008DF80700FFE79DF8070007285EDCFFE7D0
:1013C0009DF80800000600280CD5FFE7BDF80E00C8
:1013D000BDF80C1040F2B802C2F200021288FFF70A
:1013E000E7FD10E09DF8090060B9FFE7BDF80E00C9
:1013F000BDF80C1040F20402C2F200021288FFF79E
:10140000D7FDFFE7FFE79DF8080040008DF80800D2
:10141000BDF80C000130ADF80C00BDF80C0048F22E
:101420006871C2F200014988884201DBFFE72CE0C5
:10143000BDF80C00BDF80410401A9DF80A1088424F
:1014400015D1FFE7BDF80400ADF80C00BDF80E00A3
:101450000130ADF80E00BDF80E0048F26871C2F21E
:1014600000010988884201DBFFE70EE006E0FFE7A4
:101470009DF8070001308DF807009CE7FFE79DF815
:10148000060001308DF8060035E704B080BD00008D
:1014900080B586B0ADF81600ADF814100492BDF812
:1014A0001600ADF80800BDF81400ADF80600FFE71F
:1014B00004980078002800F0B480FFE700208DF841
:1014C0000D00FFE79DF80D000A2800F39D80FFE75F
:1014D0009DF80D007621414346F2D860C0F6000029
:1014E000405C04990978884240F08780FFE79DF8C6
:1014F0000D0046F2D862C0F60002762100FB012002
:10150000407804994978884277D1FFE700208DF828
:101510000F00FFE79DF80F0073286DDCFFE79DF8D3
:101520000D0046F2D862C0F60002762100FB0120D1
:101530009DF80F1008448078ADF80A0000208DF85F
:101540000E00FFE79DF80E0007284EDCFFE7BDF810
:101550000A00000600280CD5FFE7BDF81600BDF80C
:10156000141040F2B802C2F200021288FFF720FD08
:101570000BE0BDF81600BDF8141040F20402C2F2F0
:1015800000021288FFF714FDFFE7BDF80A004000D3
:10159000ADF80A00BDF816000130ADF81600BDF830
:1015A0001600BDF80810401A202817D1FFE7BDF833
:1015B0000800ADF81600BDF814000130ADF81400B5
:1015C000BDF81400BDF80610401A1D2805D1FFE72C
:1015D000BDF80600ADF81400FFE7FFE7FFE79DF850
:1015E0000E0001308DF80E00ACE7FFE79DF80F000C
:1015F00001308DF80F008DE7FFE7FFE79DF80D0044
:1016000001308DF80D005DE7049802300490BDF8BC
:1016100016002030ADF81600BDF81600ADF8080031
:1016200046E706B080BD000080B584B0ADF80E007E
:10163000ADF80C100292BDF80E000190FFE7029881
:101640000078B8B1FFE7029800788DF802000298A0
:1016500040788DF80300BDF80400BDF80C100DF1C2
:101660000202FFF715FF0198203001900298023026
:101670000290E4E704B080BD80B588B0DDF828C0F2
:10168000ADF81E00ADF81C10ADF81A20ADF81830FA
:1016900000200190ADF8120003900290BDF81E00EA
:1016A000BDF81C10BDF81A200244013ABDF81830EC
:1016B0000B44013B92B29BB2FFF7BEFD0198BDF80F
:1016C0001A10BDF81820514349000291ADF81600D8
:1016D000FFE7BDF81600BDF8181088423FDAFFE7B3
:1016E0000020ADF81400FFE7BDF81400BDF81A1093
:1016F00088422DDAFFE70A99039808444078ADF84C
:101700001200BDF812000002ADF81200BDF8120080
:101710000A99039A895C0843ADF81200BDF81E00CF
:10172000BDF814100844BDF81C10BDF81620114473
:10173000BDF8122080B289B2FFF73AFC039802305C
:101740000390FFE7BDF814000130ADF81400CBE7BB
:10175000FFE7BDF816000130ADF81600B9E708B094
:1017600080BD000080B586B0844609980898ADF821
:1017700016C0ADF81410ADF81220ADF810308DF889
:101780000F009DF816008DF80E00BDF81610BDF87C
:1017900012000844ADF81200BDF81410BDF8100096
:1017A0000844ADF81000FFE70998017800207E2971
:1017B000029008DCFFE70998017800201F29C8BFC4
:1017C00001200290FFE70298C007B0B3FFE7BDF821
:1017D0001600BDF8121088420CDBFFE79DF80E00E2
:1017E000ADF816009DF80F10BDF814000844ADF8D0
:1017F0001400FFE7BDF81400BDF81010884201DBAB
:10180000FFE71AE0BDF81600BDF81410099A127827
:101810009DF80F30EE464FF0000CCEF800C0FFF7F9
:1018200041FD9DF80F10BDF8160000EB5100ADF81A
:101830001600099801300990B6E706B080BD000097
:1018400081B0ADF80200BDF8020040F2FE71C6F6AC
:101850000041088001B0704781B0ADF80200BDF8CA
:10186000020040F60001C6F60041088001B0704752
:1018700081B0ADF80200BDF8020040F60001C6F6E6
:101880000041088001B0704784B003900291039832
:1018900002990844019001980090009804B07047A4
:1018A00081B00090009801B07047000080B584B00E
:1018B00003900398283001F033FA01900198C0B1E9
:1018C000FFE70398C06A0290FFE7029880B1FFE744
:1018D00002980230012101F0B9FA8DF803009DF859
:1018E000030008B9FFE703E0029880680290ECE784
:1018F00002E000200290FFE7029804B080BD0000E3
:1019000080B586B0059004910598006BE0B3FFE7C1
:101910000598006B039000200290FFE703990020D8
:10192000019051B1FFE70398C1780498C278002074
:101930009142B8BF01200190FFE70198C00730B184
:10194000FFE703980290039840680390E6E7039846
:1019500004994860029804998860039820B1FFE7D1
:1019600004980399886003E004980599C862FFE72A
:10197000029820B1FFE704980299486003E00498B8
:1019800005990863FFE70BE004990020486004997B
:10199000886004980599C862049805990863FFE770
:1019A0000598283001F016FA06B080BD82B001908B
:1019B00000910098406828B1FFE70098416880686E
:1019C000886004E0009880680199C862FFE7009889
:1019D000806828B1FFE7009948688968486004E09A
:1019E0000098406801990863FFE702B07047000063
:1019F00084B003900020029001900F200090039883
:101A0000C078B8B3FFE74EF60C50CEF20000006885
:101A1000C043C0F3022002900298C0F1040001907C
:101A200000980299C8400090039840780199884036
:101A30000290039880780099014002980843029030
:101A40000298000102900298039909784EF2004230
:101A5000CEF2000288540398027802F01F010120A0
:101A600088401C2101EAD2014EF20012CEF200029F
:101A700088500EE00398027802F01F010120884090
:101A80001C2101EAD2014EF28012CEF200028850EF
:101A9000FFE704B0704700004EF21000CEF20000E5
:101AA0000068704748F24020C2F20000007870B130
:101AB000FFE748F24021C2F20001002008704EF614
:101AC0000451CEF200014FF080600860FFE74EF253
:101AD0001001CEF20001086840F001000860704774
:101AE0004FF0FF307047000084B0029001910298DF
:101AF00020B9FFE74FF0FF30039031E040F20C00D7
:101B0000C2F2000000680299B0FBF1F001380090C9
:101B10000098B0F1807F04D3FFE74FF0FF300390CF
:101B20001EE04EF62351CEF20001FF2008704EF267
:101B30001001CEF200010620086000984EF2140158
:101B4000CEF2000108604EF21801CEF20001002032
:101B5000086048F24021C2F2000108700390FFE7DC
:101B6000039804B07047000080B588B04D20012173
:101B7000049100F05BF820200190ADF81C000320D8
:101B800002908DF81E00102003908DF81F0040F683
:101B90000040C4F2010007A90691FEF7A5FF019BD2
:101BA000029A03980699ADF81C308DF81E208DF826
:101BB0001F0041F60000C4F201000590FEF794FFFB
:101BC00004980699ADF81C0028208DF81F0040F6F7
:101BD0000000C4F20100FEF787FF059806991C2259
:101BE000ADF81C2048228DF81F20FEF77DFF08B0BD
:101BF00080BD000082B001908DF803109DF80300B5
:101C000048B1FFE7019A41F21401C4F202010868E9
:101C10001043086008E0019A41F21401C4F2020185
:101C2000086890430860FFE702B0704782B00190F7
:101C30008DF803109DF8030048B1FFE7019A41F2C7
:101C40001801C4F2020108681043086008E0019A14
:101C500041F21801C4F20201086890430860FFE7EE
:101C600002B0704786B00590002004900390029067
:101C7000019041F20400C4F20200006800F00C0080
:101C800004900498009040B1FFE7009804280BD01E
:101C9000FFE7009808280ED047E0059941F20020A0
:101CA000C0F27A00086047E0059941F20020C0F2D6
:101CB0007A00086040E041F20400C4F202000168CA
:101CC00001F470110391006800F4803002900399D0
:101CD000022000EB91400390029848B9FFE7039877
:101CE00040F60011C0F23D014843059908601BE031
:101CF00041F20400C4F2020000688003002809D504
:101D0000FFE7039840F60011C0F23D0148430599F2
:101D1000086008E0039841F20021C0F27A014843CC
:101D200005990860FFE7FFE706E0059941F200200A
:101D3000C0F27A000860FFE741F20400C4F202003A
:101D4000016801F0F0010491049909090491049AD1
:101D500046F2C861C0F600018A5C0192059B1A68D0
:101D6000DDF804C022FA0CF25A60026802F4E06264
:101D70000492049A120A0492049A8A5C0192059BC6
:101D80005A68DDF804C022FA0CF29A60026802F484
:101D900060520492049AD20A0492049A895C0191D6
:101DA000059A5168019BD940D160006800F4404019
:101DB00004900498800B0490049946F2B460C0F635
:101DC0000000405C01900599C868019AB0FBF2F0F0
:101DD000086106B07047000080B584B04EF622500E
:101DE000CEF20000FF210170007880F0FF00039028
:101DF0000398B0FA80F0C0F12000019000F0E2FEFC
:101E0000029002980199884204D3FFE702980130BA
:101E10000190FFE70199FE2088404EF61F51CEF257
:101E20000001087004B080BD4EF60451CEF20001EE
:101E30004FF080500860704783B08DF803009DF824
:101E40000300C00740B1FFE702200290029880F330
:101E50001488BFF36F8F07E003200190019880F38F
:101E60001488BFF36F8FFFE703B0704780B500F0B1
:101E700001F880BD84B000200390029041F200017F
:101E8000C4F20201086840F480300860FFE741F2C4
:101E90000000C4F20200006800F4003002900398D1
:101EA00001300390FFE702990020019039B9FFE764
:101EB0000398B0F5A06018BF01200190FFE70198DA
:101EC000C0070028E3D1FFE741F20000C4F202009E
:101ED00000688003002803D5FFE70120029002E09C
:101EE00000200290FFE70298012851D1FFE742F25B
:101EF0000001C4F20201086840F0100008600868A0
:101F000020F007000860086840F00200086041F215
:101F10000401C4F2020100910868086008680860C2
:101F2000086840F480600860086820F47C1008604D
:101F3000086840F4E810086041F20001C4F20201B0
:101F4000086840F080700860FFE741F20000C4F2CA
:101F5000020000688001002801D4FFE7F5E741F2A4
:101F60000401C4F20201086820F003000860086858
:101F700040F002000860FFE741F20400C4F20200F2
:101F8000006800F00C00082801D0FFE7F4E700E04B
:101F9000FFE704B07047000081B08DF803002020F7
:101FA00001B0704781B000900098042809D1FFE784
:101FB0004EF21001CEF20001086840F00400086003
:101FC00008E04EF21001CEF20001086820F0040093
:101FD0000860FFE701B0704780B582B08DF8070058
:101FE0006FF00400FFF7DEFF9DF80700C10840F224
:101FF0009410C2F20000017000784FF47A714843E7
:1020000040F29211C2F20001088002B080BD0000CF
:1020100084B0002003900290019041F20400C4F2C9
:102020000200006800F00C0003900398009040B19B
:10203000FFE7009804280ED0FFE70098082814D086
:1020400056E040F20C01C2F2000141F20020C0F261
:102050007A00086056E040F20C01C2F2000141F241
:102060000020C0F27A0008604CE041F20400C4F2A3
:102070000200016801F470110291006800F48030E0
:1020800001900299022000EB91400290019860B902
:10209000FFE7029840F60011C0F23D01484340F2CC
:1020A0000C01C2F20001086021E041F20400C4F218
:1020B00002000068800300280CD5FFE7029840F674
:1020C0000011C0F23D01484340F20C01C2F2000190
:1020D00008600BE0029841F20021C0F27A01484307
:1020E00040F20C01C2F200010860FFE7FFE709E0DF
:1020F00040F20C01C2F2000141F20020C0F27A006D
:102100000860FFE741F20400C4F202000068C0B2B8
:10211000010946F2B860C0F60000405C0390039AE3
:1021200040F20C01C2F200010868D040086004B01F
:102130007047000080B541F20002C4F2020210684C
:1021400040F00100106041F20401C4F2020108688D
:102150000023CFF6FF031840086010684FF6FF73A6
:10216000CFF6F66318401060106820F480201060ED
:10217000086820F4FE00086041F20801C4F2020180
:102180004FF41F000860FFF771FE4EF60851CEF2C3
:1021900000014FF00060086080BD000080B5A0B075
:1021A0004FF4807001210291FFF724FD02980A90FC
:1021B00000200B900F210C910D900E900F9010901D
:1021C000152103910491052105910690079008902F
:1021D00009900621019111911290139010211491F0
:1021E000159017901690189019904FF480511A91ED
:1021F0001B904FF480411C911D900AA81E9003A8CB
:102200001F9011A8FEF7F2FB01980299FEF7CCFB94
:1022100020B080BD80B586B04FF4B4700121049128
:10222000FFF704FD4CF23370ADF814001820019054
:102230008DF81700032002908DF8160041F200403F
:10224000C4F2010005A90391FEF74EFC019A029821
:1022500003994FF68073ADF814308DF817208DF880
:10226000160041F60000C4F20100FEF73DFC019AA1
:102270000298039941F20103ADF814308DF817204C
:102280008DF8160042F20000C4F20100FEF72CFCAB
:1022900002980399049AADF8142010228DF81720A3
:1022A0008DF8160040F60040C4F20100FEF71CFC59
:1022B000049848F28011C4F22121086006B080BD64
:1022C00080B590B04820FFF787FEFFF7A3FFFFF728
:1022D00065FF322000F0CEFDD320FFF7B1FA40F6C3
:1022E0000001C6F600410A8848F26870C2F2000098
:1022F00082800A8882800A88828082881202828094
:102300000A88818811438180818845F2E560C0F6A2
:10231000030003F001FDFF200190FFF791FA0198FF
:10232000FFF78EFA0520049000F0A4FD0198FFF756
:1023300087FA0198FFF784FA0198FFF781FA01986C
:10234000FFF77EFA0A2000F095FDB020FFF778FA3B
:1023500000200E90FFF780FAB320FFF771FA0220F9
:10236000FFF77AFA0E98FFF777FA0E98FFF774FAEC
:102370000E98FFF771FAC0200B90FFF761FA132057
:102380000C90FFF769FA3B20FFF766FA0E98FFF70B
:1023900063FA0E98FFF760FA0E98FFF75DFA0120D6
:1023A0000A90FFF759FA0E98FFF756FA4320FFF705
:1023B00053FAC120FFF744FA08200290FFF74CFAC5
:1023C0001B20FFF749FA0298FFF746FA0298FFF739
:1023D00043FAC420FFF734FA11200D90FFF73CFABE
:1023E0000A98FFF739FA7320FFF736FA0A98FFF7D1
:1023F00033FAC620FFF724FA0E98FFF72DFAC8200B
:10240000FFF71EFA0F200590FFF726FA0498FFF752
:1024100023FA14200390FFF71FFA5C20FFF71CFA41
:1024200003200990FFF718FA07200790FFF714FA26
:102430000798FFF711FA10200890FFF70DFA0E9891
:10244000FFF70AFA23200690FFF706FA0898FFF72D
:1024500003FA0798FFF700FA0798FFF7FDF95320F2
:10246000FFF7FAF90C20FFF7F7F90398FFF7F4F9F3
:102470000498FFF7F1F90598FFF7EEF90698FFF7D2
:10248000EBF90E98FFF7E8F93520FFF7D9F90E9828
:10249000FFF7E2F94420FFF7D3F90E98FFF7DCF9D4
:1024A0000A98FFF7D9F9D020FFF7CAF90798FFF784
:1024B000D3F90798FFF7D0F91D20FFF7CDF9099858
:1024C000FFF7CAF9D120FFF7BBF90998FFF7C4F964
:1024D0005B20FFF7C1F90898FFF7BEF9D220FFF79C
:1024E000AFF90998FFF7B8F92420FFF7B5F90420F0
:1024F000FFF7B2F92A20FFF7A3F90E98FFF7ACF91E
:102500000E98FFF7A9F90A98FFF7A6F93F20FFF701
:10251000A3F92B20FFF794F90E98FFF79DF90E9879
:10252000FFF79AF90A98FFF797F9DF20FFF794F978
:102530003620FFF785F90E98FFF78EF90B98FFF715
:102540007FF90C98FFF788F93A20FFF779F95520C1
:10255000FFF782F90D98FFF773F9962000F08AFCD7
:102560002920FFF76DF91E2000F084FC2C20FFF7D6
:1025700067F90E98FEF7E8FC4FF6FF70FEF7A0FC37
:1025800010B080BD80B584B00390029101929DF897
:1025900004008007002814D4FFE79DF80400C0075A
:1025A00038B1FFE703982830029900F05DFB0090F6
:1025B00006E003982830029900F072FB0090FFE7D4
:1025C0001BE00398806A00909DF80400C00730B1BA
:1025D000FFE700980299084088420AD1FFE79DF87A
:1025E0000400C00740B9FFE700980299084203D1F0
:1025F000FFE700200090FFE7FFE7009804B080BDF0
:1026000085B0049003910020029040F21000C2F2C5
:102610000000406C0190FFE701990020009049B153
:10262000FFE701980169039A0020914298BF0120B9
:102630000090FFE70098C00758B1FFE701980169D3
:102640000398401A0390019802900198C068019085
:10265000E2E7039804990861029804998860019858
:102660000499C860019850B1FFE704980269019984
:102670000869801A0861049801998860FFE7029848
:1026800020B1FFE704980299C86006E0049840F280
:102690001001C2F200014864FFE705B07047000076
:1026A00081B000900098C06828B1FFE70099886861
:1026B000C9688860FFE70098C06840F21001C2F264
:1026C0000001486401B0704780B582B043F6000055
:1026D000C4F2010040F2255100F010F900285ED04C
:1026E000FFE743F60000C4F2010000F057FA8DF84E
:1026F000070040F29010C2F2000040780006002867
:102700004CD4FFE740F29010C2F200000088400471
:10271000002816D5FFE79DF807000A2807D0FFE735
:1027200040F29011C2F200010020088008E040F25F
:102730009011C2F20001088840F400400880FFE7D1
:102740002BE09DF807000D2809D1FFE740F290111A
:10275000C2F20001088840F4804008801CE09DF827
:10276000071040F29010C2F2000003886FF39F330D
:1027700040F2C802C2F20002D15401880131018046
:102780000088C82807DBFFE740F29011C2F2000181
:1027900000200880FFE7FFE7FFE7FFE7FFE702B061
:1027A00080BD000080B58EB00D9004200190012105
:1027B0000691FFF73BFA06994FF48040FFF736FA8F
:1027C0004FF40070ADF83000032005908DF8320012
:1027D00018208DF8330040F60000C4F2010002908A
:1027E0000CA90391FEF780F9019A029803994FF41E
:1027F0008063ADF830308DF83320FEF775F90D9811
:1028000008900020ADF82400ADF82600ADF82800AF
:10281000ADF82C000C20ADF82A0043F60000C4F2FD
:102820000100049008A900F00BF90498069900F043
:102830002DF80498402100F017F80498069A40F209
:10284000255100F0B3F80599069825228DF81C2033
:102850008DF81D108DF81E108DF81F0007A8FFF7CA
:10286000C7F80EB080BD000082B00190ADF8021034
:10287000BDF802008005002801D5FFE7FFE7BDF89D
:102880000200C0430199088002B0704782B00190F5
:102890008DF803109DF8030030B1FFE70199888996
:1028A00040F40050888105E00199888920F40050A7
:1028B0008881FFE702B0704782B00190ADF8021046
:1028C00000208DF80100BDF80200B0F5007F01D1B5
:1028D000FFE7FFE701980088BDF8021008400004F8
:1028E00020B1FFE701208DF8010003E000208DF802
:1028F0000100FFE79DF8010002B0704786B0059027
:10290000ADF8121000200390029001908DF80300A2
:10291000BDF8120040F66A11884201D1FFE7FFE7D7
:102920009DF8120040090190BDF8120000F01F0050
:10293000029002990120884002900198012806D156
:10294000FFE70598818902980840029010E00198FD
:10295000022806D1FFE70598018A029808400290F4
:1029600005E00598818A029808400290FFE7FFE79A
:102970009DF8130003900399012088400390059867
:102980000188039808400390029838B1FFE7039844
:1029900020B1FFE701208DF8030003E000208DF84F
:1029A0000300FFE79DF8030006B0704786B005906E
:1029B000ADF812108DF811200020039002900190C4
:1029C0000090BDF8120040F66A11884201D1FFE77D
:1029D000FFE7059800909DF8120040090390BDF8AC
:1029E000120000F01F00029002990120884001901F
:1029F0000398012804D1FFE700980C3000900CE008
:102A00000398022804D1FFE700981030009003E0FB
:102A1000009814300090FFE7FFE79DF8110030B1F7
:102A2000FFE7019A009908681043086005E0019AE1
:102A30000099086890430860FFE706B070470000FF
:102A400080B58CB00B900A910020099008900790F7
:102A5000069005900A98808908B1FFE7FFE70B9878
:102A600005900B98008A099009984CF6FF71084070
:102A700009900A98C18809980843099009980B9908
:102A800008820B988089099009984EF6F311084046
:102A900009900A9988880A8910434989014309984D
:102AA0000843099009980B9988810B98808A0990AE
:102AB00009984FF6FF41084009900A9881890998C2
:102AC0000843099009980B9988826846FFF7CAF86D
:102AD000059843F60001C4F20101884203D1FFE7E3
:102AE0000398089002E002980890FFE70B9880890D
:102AF000000400280AD5FFE70898192148430A99DD
:102B000009684900B0FBF1F0079009E00898192125
:102B100048430A9909688900B0FBF1F00790FFE784
:102B2000079848F21F51C5F2EB11A0FB01016FF0AD
:102B30000F0000EA51000990079A099800096421E2
:102B400000FB112006900B9880890004002810D506
:102B5000FFE70699322000EBC10048F21F51C5F291
:102B6000EB11A0FB0110C0F3421109980843099032
:102B70000FE00699322000EB011048F21F51C5F218
:102B8000EB11A0FB0110C0F3431109980843099011
:102B9000FFE709980B9908810CB080BD81B00090C7
:102BA000009880886FF35F2001B0704782B0019079
:102BB000ADF80210BDF802006FF35F200199888024
:102BC00002B070474EF60C50CEF200000068C0F321
:102BD0000220704780B588B0079040F2C401C2F26D
:102BE0000001049145F2C760C0F603000860694621
:102BF0004FF6FF70086014210591F02202923C23E9
:102C000003930846FEF7C4FA029A039B0599084607
:102C1000FEF78EFA049905980A684621FEF704FD2E
:102C200042F64D70C0F6000045F20072C0F6030295
:102C30000021069102F04AF8069948F27072C2F239
:102C40000002106044F67950C0F6000045F224728C
:102C5000C0F6030202F03AF848F27471C2F20001C1
:102C6000086008B080BD000010B585B004900391E5
:102C7000049B039C53E8002F02EA0401A14203D005
:102C8000BFF32F8F002205E022EA040143E8001081
:102C900000B1EFE7009202910190009805B010BDDD
:102CA00010B585B004900391049B039C53E8002F5A
:102CB000224203D1BFF32F8F002205E022EA040154
:102CC00043E8001000B1F1E70092029101900098F2
:102CD00005B010BD84B00390039BD3E85F2F12B9F9
:102CE000BFF32F8F04E0511EC3E8501F00B1F4E77B
:102CF000ADF8022002910190BDF8020004B07047C7
:102D000084B00390039B53E8002F511E43E800104A
:102D100000B1F8E7009202910190009804B070476A
:102D200084B00390039B53E8002F12B9BFF32F8F99
:102D300004E0511E43E8001000B1F4E70092029154
:102D40000190009804B0704710B585B00490ADF8BC
:102D50000E10049BBDF80E40D3E85F2F511C8C422F
:102D600000D80021C3E8501F00B1F5E7ADF80220FC
:102D700002910190BDF8020005B010BD10B585B0FC
:102D80000490ADF80E10049BBDF80E40D3E85F2F01
:102D9000944202D8BFF32F8F04E0511CC3E8501FA8
:102DA00000B1F3E7ADF8022002910190BDF80200F6
:102DB00005B010BD84B00390039B53E8002F511C55
:102DC00043E8001000B1F8E70092029101900098EA
:102DD00004B0704784B00390039B53E8002F511C4C
:102DE00043E8001000B1F8E70092029101900098CA
:102DF00004B0704784B00390039B53E8002F12B9CE
:102E0000BFF32F8F04E0116843E8001000B1F4E72E
:102E1000009202910190009804B0704710B585B0FF
:102E200004900391049B039C1A682260BFF35F8F98
:102E300053E8002F21689142F6D143E8004000B1E9
:102E4000F2E702920191009005B010BD84B00390AA
:102E50008DF80B10039A9DF80B30D2E84F1FC2E893
:102E6000403F00B1F9E78DF8031001909DF8030091
:102E700004B0704783B0ADF80A00BDF80A0040F214
:102E80009211C2F20001098848434EF21401CEF2B9
:102E9000000108604EF21801CEF200010020086027
:102EA0004EF21001CEF20001086840F00100086007
:102EB000FFE74EF21000CEF2000000680190FFE73D
:102EC00000209DF80410C907009031B1FFE79DF87C
:102ED0000610012088430090FFE70098C0070028F3
:102EE000E7D1FFE74EF21001CEF20001086820F0B2
:102EF000010008604EF21801CEF2000100200860C7
:102F000003B0704780B584B0029000200190FFE7C5
:102F10000198092812D8FFE7FDF770FF029988424F
:102F200004D0FFE700208DF80F000BE0642000F0D4
:102F30008DFBFFE7019801300190E9E701208DF852
:102F40000F00FFE79DF80F0004B080BD80B586B08C
:102F50000590FFE7FDF752FF8DF813009DF8130071
:102F6000002800F06A81FFE79DF81300FFF7CAFF11
:102F7000002800F06281FFE740F2BC00C2F20000CE
:102F80000022114601F0DCFE70B1FFE740F2FC11B7
:102F9000C2F200010A68501C086040F29511C2F2AA
:102FA0000001312088543BE140F2BC00C2F2000035
:102FB0000021012201F0C4FE70B1FFE740F2FC11D4
:102FC000C2F200010A68501C086040F29511C2F27A
:102FD00000013220885422E140F2BC00C2F200001D
:102FE0000021022201F0ACFE70B1FFE740F2FC11BB
:102FF000C2F200010A68501C086040F29511C2F24A
:1030000000013320885409E140F2BC00C2F2000004
:103010000121002201F094FE70B1FFE740F2FC11A3
:10302000C2F200010A68501C086040F29511C2F219
:10303000000134208854F0E040F2BC00C2F20000ED
:103040000122114601F07CFE70B1FFE740F2FC1155
:10305000C2F200010A68501C086040F29511C2F2E9
:10306000000135208854D7E040F2BC00C2F20000D5
:103070000121022201F064FE70B1FFE740F2FC1171
:10308000C2F200010A68501C086040F29511C2F2B9
:10309000000136208854BEE040F2BC00C2F20000BD
:1030A0000221002201F04CFE70B1FFE740F2FC115A
:1030B000C2F200010A68501C086040F29511C2F289
:1030C000000137208854A5E040F2BC00C2F20000A5
:1030D0000221012201F034FE70B1FFE740F2FC1141
:1030E000C2F200010A68501C086040F29511C2F259
:1030F0000001382088548CE040F2BC00C2F200008D
:103100000222114601F01CFE70B1FFE740F2FC11F3
:10311000C2F200010A68501C086040F29511C2F228
:1031200000013920885473E040F2BC00C2F2000074
:103130000321002201F004FEB8B3FFE700F0DAF942
:10314000E8B1FFE740F2C400C2F2000045F2BE6100
:10315000C0F6030101600268142046210391FEF7C6
:1031600063FA039945F29062C0F603026846426032
:10317000202303609420AC22FEF7F4FA0EE040F224
:10318000C400C2F2000045F2D261C0F60301016042
:10319000026814204621FEF747FAFFE740F2FC11CF
:1031A000C2F200010020086031E040F2BC00C2F22F
:1031B00000000321012201F0C3FD70B1FFE740F2DE
:1031C000FC11C2F200010A68501C086040F295111F
:1031D000C2F200013020885418E040F2BC00C2F274
:1031E00000000321022201F0ABFD70B1FFE740F2C5
:1031F000FC11C2F200010A68501E086040F29511ED
:10320000C2F2000100208854FFE7FFE7FFE7FFE775
:10321000FFE7FFE7FFE7FFE7FFE7FFE7FFE7FFE77E
:10322000FFE7FDF7EBFD9DF81310884204D1FFE79F
:10323000642000F00BFAF4E733E09DF81300012856
:1032400004D1FFE7002000F0A9F91DE09DF813006C
:10325000022804D1FFE7032000F0A0F913E09DF855
:103260001300032804D1FFE7012000F097F909E0DB
:103270009DF81300042804D1FFE7022000F08EF926
:10328000FFE7FFE7FFE7FFE79DF8130020B9FFE73F
:103290000A2000F0DBF903E0642000F0D7F9FFE733
:1032A000FFE757E680B582B0019000919DF80410C9
:1032B00043F60000C4F20100FFF778FCFFE743F695
:1032C0000000C4F201008021FFF7F6FA08B9FFE719
:1032D000F5E7019802B080BD80B58AB008900791EB
:1032E00006920593089800F0EDFC04900498FDF711
:1032F00061FD58B1FFE704980078FA2806D1FFE78E
:10330000079818B1FFE7059848B1FFE704986FF0F8
:1033100003010191FDF7AAFA019809902FE00498A2
:10332000FEF7C4FA03900398F0B1FFE707980399FA
:103330000C31049A526AFCF777FF069828B1FFE730
:103340000398C07806990870FFE704980399C8604D
:10335000039800F027FE00F099FE04980799FDF706
:10336000C7FA0020029007E004980799FDF7A8FA31
:103370006FF002000290FFE702980990FFE70998BA
:103380000AB080BD80B58AB0089007918DF81B20E7
:103390000593089800F096FC04900498FDF70AFD48
:1033A00058B1FFE704980078FA2806D1FFE707989C
:1033B00018B1FFE7059848B1FFE704986FF00301E3
:1033C0000191FDF753FA0198099036E004980C300A
:1033D00000F0C8FB0390039820B3FFE703980C307C
:1033E0000799049A526AFCF71FFF0399F9200870A5
:1033F00003990020009088709DF81B000399C87005
:10340000079803994860049803998860039800F02E
:10341000C9FD00F03BFE04980799FDF73FFA0098BC
:10342000029007E004980799FDF744FA6FF0020054
:103430000290FFE702980990FFE709980AB080BD63
:1034400080B584B040F21000C2F20000B0F8541011
:10345000ADF80A105630FFF73DFCA8B1FFE7BDF804
:103460000A1040F21000C2F2000000905A30FFF73C
:103470006BFC014600980391C06D039950F8210040
:1034800000F09CFD019002E000200190FFE7019810
:1034900004B080BD80B586B0059040F21000C2F245
:1034A0000000B0F85410ADF80E10BDF80E105630F4
:1034B000FFF764FCBDF80E10884214DAFFE7BDF890
:1034C0000E1040F21000C2F2000001905830FFF7D9
:1034D0003BFC019904900598C96D049A41F82200BB
:1034E0000120029002E000200290FFE7029806B05F
:1034F00080BD000082B040F2FC10C2F20000006803
:10350000052804D0FFE700208DF8070022E0002006
:103510000090FFE70098042818D8FFE7009A40F2CF
:103520009510C2F20000805C40F20801C2F2000176
:103530000968895C884204D0FFE700208DF8070005
:1035400008E0FFE7009801300090E3E701208DF8E4
:103550000700FFE79DF8070002B0704780B582B012
:10356000002000900190FEF7FFFA4FF4E130FFF7E2
:1035700019F9FEF7A5FEFEF74BFD00F091F8009952
:1035800042F6D530C0F6000045F24872C0F603029C
:1035900001F09CFB00F0AAF8FFE7FEE781B0009085
:1035A000009870B9FFE740F2BC01C2F20001086860
:1035B0000330C21700EB927222F00302801A0860F7
:1035C00042E0009801280ED1FFE740F2BC01C2F2B0
:1035D000000108680530C21700EB927222F0030266
:1035E000801A08602FE00098022813D1FFE740F20C
:1035F000BC01C2F200014868023045F25652C5F2E1
:10360000555280FB023202EBD27202EB4202801A68
:10361000486017E00098032813D1FFE740F2BC018F
:10362000C2F200014868043045F25652C5F25552C4
:1036300080FB023202EBD27202EB4202801A486037
:10364000FFE7FFE7FFE7FFE701B0704780B586B00F
:1036500002900298FDF7B2F8FDF724FB20B9FFE7CE
:10366000FDF748FB40B1FFE76FF005000090FDF764
:10367000ADF80098019010E002980590059804902C
:1036800044F6C960C0F600000390DDF80CC0049851
:1036900000DF049004980190FFE7019806B080BD18
:1036A00080B584B000F0EEF8FDF7A6F8FDF704FB56
:1036B00020B9FFE7FDF736FB40B1FFE76FF00500EB
:1036C0000090FDF78FF8009801900BE044F6197018
:1036D000C0F600000290DDF808C000DF03900398F8
:1036E0000190FFE7019804B080BD000080B584B070
:1036F000FDF786F8FDF7E0FA20B9FFE7FDF712FBCA
:1037000040B1FFE76FF005000090FDF76BF80098FF
:1037100001900BE045F21D20C0F600000290DDF89C
:1037200008C000DF039003980190FFE7019804B000
:1037300080BD000080B58EB0049003910292019389
:1037400004980399029A019BFDF796F8FDF7BEFADB
:1037500020B9FFE7FDF7FEFA40B1FFE704980399AF
:10376000029A019BFFF7B8FD00901FE0049B039AAB
:10377000029901980D930C920B910A900D98099063
:103780000C9808900B9807900A98069045F2C12073
:10379000C0F600000590DDF814C009980899079A52
:1037A000069B00DF099009980090FFE700980EB093
:1037B00080BD000080B58EB0049003918DF80B2081
:1037C0000193049803999DF80B20019BFDF77EF867
:1037D000FDF77CFA20B9FFE7FDF7BCFA48B1FFE737
:1037E000049803999DF80B20019BFFF7CBFD0090F7
:1037F00022E0049B039A9DF80B1001980D930C9204
:103800008DF82F100A900D9809900C9808909DF84B
:103810002F0007900A98069045F2B960C0F60000A4
:103820000590DDF814C009980899079A069B00DFF7
:10383000099009980090FFE700980EB080BD000045
:1038400083B0029001910298013801460091052849
:103850000BD80099DFE801F003040506070805E02E
:1038600004E003E002E001E000E0FFE7FFE7FEE73D
:1038700081B00090009801B07047000081B00090C6
:10388000FFE7FEE77047000080B582B0019000912D
:1038900001980099FCF7AAFF01980099FFF7D0FF63
:1038A00002B080BD40F21000C2F20000007A704702
:1038B00040F21000C2F20000007A704780B58EB06E
:1038C0000C900B910A920C9838B1FFE70B9820B13D
:1038D000FFE70A98800850B1FFE70C980B990A9A05
:1038E00000230493FCF790FF04980D9089E00B9857
:1038F000083006900698073020F0070006900C98D4
:103900000821FDF7C1FF0890FFE708990868401AF1
:1039100005900898406820F003010598401A05902A
:1039200005980699884201D3FFE711E008980068DE
:1039300008900898006850B9FFE70C980B990A9A0C
:1039400000230393FCF760FF03980D9059E0DCE738
:10395000069800900C98FDF7A3FF009A014648686E
:10396000104448600C980190FDF79AFF01460198B9
:1039700009680839FDF788FF0790079840680290AA
:103980000C98FDF78DFF014602984968884207D2DE
:10399000FFE70C98FDF784FF406807994860FFE750
:1039A0000898406858B9FFE706980A9908430899AB
:1039B000486008980821FDF767FF099018E008980B
:1039C000416821F00301FDF75FFF07900898006848
:1039D0000799086006980A9908430799486007986C
:1039E0000899086007980821FDF74EFF0990FFE746
:1039F0000C980B990A9A099BFCF706FF09980D9001
:103A0000FFE70D980EB080BD80B58CB00A9009918B
:103A10000A9818B1FFE7099848B9FFE70A98099989
:103A200000220592FCF70CFF05980B904AE00998DC
:103A300000210491FDF728FF014604980891089998
:103A40000839089106900A980821FDF71DFF079094
:103A5000FFE707980899884212D0FFE70798069079
:103A6000079800680790079848B9FFE70A980999EE
:103A700000220392FCF7E4FE03980B9022E0E8E7B3
:103A80000798406820F0030002900A98FDF708FFAD
:103A9000029A01464868801A4860069820B9FFE7F4
:103AA00007990020486004E00798006806990860BC
:103AB000FFE70A98099901220192FCF7C1FE0198DB
:103AC0000B90FFE70B980CB080BD000080B588B06C
:103AD00006900591069870B1FFE79DF81800400721
:103AE00048B9FFE79DF81400400720B9FFE70598A3
:103AF000172809D8FFE70698059900220292FCF7DB
:103B0000A5FE0298079029E00698FDF7C9FE0490EB
:103B10000598049908600499102000904860069860
:103B20000821FDF7B1FE0390069805990839FDF7C5
:103B3000ABFE0099039A10600398026800201060A1
:103B4000039A12685160039948600698059901220A
:103B50000192FCF77BFE01980790FFE7079808B0F9
:103B600080BD000080B584B00290029840B9FFE7A4
:103B7000002100910846FCF74FFE0098039013E0E7
:103B800002981430FFF736F90190019828B1FFE749
:103B900002980430FFF70EF9FFE702980199FCF74D
:103BA0003BFE01980390FFE7039804B080BD00003E
:103BB00080B586B004900391049860B1FFE7039844
:103BC0000499C968884206D3FFE7039804990969F4
:103BD00088420AD3FFE7049803996FF00302029228
:103BE000FCF720FE0298059011E004981430039928
:103BF000FFF714F904980430FFF782F8049803994A
:103C000000220192FCF70EFE01980590FFE705984F
:103C100006B080BD80B588B00690059104920393EC
:103C2000069848B1FFE7059830B1FFE7049818B14E
:103C3000FFE7039818B9FFE70020079033E00598E5
:103C400006990860069900204860049806998860E3
:103C500003980699C860039806994861039A0598E5
:103C6000049900FB01200699086106980599049AB9
:103C7000039BFCF7DDFD03980290FFE705980138F0
:103C8000059050B1FFE7029804990844019001980B
:103C90000299086001980290F0E7029900200860FC
:103CA00001200790FFE7079808B080BD81B0009021
:103CB000009801B07047000081B00090009801B0FA
:103CC0007047000081B00090009801B0704700007C
:103CD00080B588B007900798807800284AD0FFE721
:103CE0000798C068069006980799FDF75FFE079948
:103CF0000020087006980C300799FFF759FF0698C6
:103D00008068B0B3FFE706980C30FFF72BFF0590F3
:103D1000059868B3FFE7069800F044F900F09EFCB0
:103D20000490049800220092114600F069FE049865
:103D300000F082FD039003984068029005980C30D3
:103D40000299069A526AFCF76FFA0098059AF921CF
:103D5000117005998870039880680599C870069855
:103D60000599FDF7CDFD06980299FCF79DFDFFE74B
:103D7000FFE74DE00798806806900798406802903A
:103D800006988068D0B3FFE706988068407883285B
:103D900034D1FFE706980299FCF786FD069800F0FB
:103DA00001F900F05BFC049004980022114600F039
:103DB00027FE049800F040FD0390039840680190AE
:103DC000019807990C31069A526AFCF72DFA03986C
:103DD000806830B1FFE70798C07803998968087058
:103DE000FFE706980199FCF783FD0799002008700A
:103DF00006980C300799FFF7DBFE08E00698029959
:103E0000FCF752FD06980799FDF77AFDFFE7FFE7FB
:103E100008B080BD80B582B04FF0FF30019046F20F
:103E20000C60C0F60000826EC06E082101F0FCFA42
:103E3000FFF748FF014640F21000C2F20000C164E3
:103E4000C06C18B1FFE700200190FFE7019802B0B5
:103E500080BD000081B00090009801B07047000064
:103E600080B586B0059005980490FFE70498002877
:103E700040D0FFE70498406903900498C078000799
:103E8000002834D5FFE70498002101760498FCF758
:103E90003FFD0498806848B3FFE7049800F088F875
:103EA00000F0DCFB0290029800220192114600F023
:103EB000A7FD01980299049AD160049908610298BB
:103EC000C06A049948610298C06A28B1FFE7049863
:103ED0000299C96A0861FFE704980299C8620498C8
:103EE000012101760498FCF70DFDFFE7FFE7039839
:103EF0000490BBE706B080BD80B586B00590049104
:103F00000598C078800700284AD5FFE70598C06863
:103F10000290029890F821008DF803000298C06A80
:103F20000390FFE70398C078800700281ED5FFE7BD
:103F300003988068019001980499884204D1FFE7B2
:103F4000019880680190FFE7019870B1FFE7019840
:103F500090F920009DF90310884206DDFFE70198E3
:103F600090F820008DF80300FFE7FFE70398406911
:103F70000390FFE703980028D4D1FFE7029890F957
:103F800020009DF90310884209D0FFE79DF8030047
:103F9000029981F82000029800F0E4FBFFE7FFE7B8
:103FA00006B080BD81B00090009801B0704700005D
:103FB00081B00090009801B07047000081B000907F
:103FC000009801B07047000081B00090009801B0E7
:103FD0007047000080B588B0FFE7FFF731FA07901F
:103FE000079808B9FFE74CE007980078F1380146D8
:103FF0000691082843D80699DFE801F005411141F0
:10400000411D2941350040F21000C2F20000006E4F
:104010000590079800F0D2FB0599884730E040F200
:104020001000C2F20000406E04900798FFF720FCD9
:104030000499884724E040F21000C2F20000806E2C
:104040000390079800F044F80399884718E040F27D
:104050001000C2F20000C06E02900798FFF726FE23
:10406000029988470CE040F21000C2F20000006F95
:1040700001900798FFF720FE0199884700E0FFE7CD
:10408000ABE7002000F016FA08B080BD80B582B022
:1040900001900198FFF7FEF990B1FFE740F21000A0
:1040A000C2F20000407A18B9FFE7FDF7BDFE06E056
:1040B00040F21001C2F2000101208872FFE704E023
:1040C00001990220FFF7E0FBFFE702B080BD00008E
:1040D00081B00090009801B07047000081B000905E
:1040E00001B0704780B586B00590059901204870F1
:1040F000059890F92000029040F21000C2F20000F2
:104100001C3000F061FB0490049880680390FFE786
:1041100003990020019051B1FFE7039890F9201016
:10412000029A00209142C8BF01200190FFE7019848
:10413000C00730B1FFE703980490039880680390AC
:10414000E6E704980599C860039805998860059882
:1041500004998860039820B1FFE705980399C86027
:10416000FFE70598FCF70CFC06B080BD85B0049015
:1041700003910398013050BBFFE70020029040F20A
:104180001000C2F20000006B0190FFE7019830B10F
:10419000FFE701980290019800690190F6E7039803
:1041A0000499C86102980499486104990020086143
:1041B000029820B1FFE704980299086106E004988C
:1041C00040F21001C2F200010863FFE749E000205D
:1041D000029040F21000C2F20000C06A0190FFE7B6
:1041E00001990020009049B1FFE70198C169039A45
:1041F0000020914298BF01200090FFE70098C0077F
:1042000058B1FFE70198C1690398401A03900198DB
:104210000290019800690190E2E703980499C8614F
:10422000029804994861019804990861029820B1A4
:10423000FFE704980299086106E0049840F2100133
:10424000C2F20001C862FFE7019848B1FFE7039A94
:104250000199C869801AC861049801994861FFE70B
:10426000FFE705B07047000081B000900098C0697A
:104270000130F0B9FFE70098006928B1FFE7009826
:10428000016940694861FFE70098406940B1FFE774
:10429000009908694969086100990020486107E0B0
:1042A0000098006940F21001C2F200010863FFE7C4
:1042B00023E00098006958B1FFE700980169C269DE
:1042C000C8691044C8610098016940694861FFE706
:1042D0000098406940B1FFE70099086949690861A1
:1042E00000990020486107E00098006940F2100141
:1042F000C2F20001C862FFE7FFE700990020C86131
:1043000001B0704780B586B040F21000C2F20000E4
:10431000C06A0590059808B9FFE799E00599C86952
:104320000138C8610598C069002840F09180FFE716
:10433000FFE7059840780146039113281CD0FFE75A
:10434000039833281CD0FFE7039843281CD0FFE7CD
:10435000039853281ED0FFE7039863282CD0FFE76B
:10436000039873282ED0FFE70398832830D0FFE707
:104370000398932832D037E00598FCF723FA34E00D
:104380000598FCF7EFFA30E0059800F0D9F9FCF752
:1043900025FA2AE0059800F0D3F9FFF715FE0490FE
:1043A0000498FFF757FD0599FFF7A6FD0498FFF75E
:1043B00051FDFCF7A3FA18E0059800F0C1F9FCF7ED
:1043C000ADFA12E0059800F0BBF9FCF745FA0CE0F5
:1043D000059800F0B5F9FCF75DFA06E0059800F0E5
:1043E000AFF9FCF781FA00E0FFE70598029000F0D2
:1043F00023FA014602980968FCF7CAFA059800F00A
:1044000085F9059800F008FA059800690590FFE71E
:1044100005990020019039B1FFE70598C069B0FA0D
:1044200080F040090190FFE70198C00700287FF461
:1044300080AFFFE7059820B1FFE7059900204861AC
:10444000FFE7059840F21001C2F20001C862FFE7E1
:1044500006B080BD80B582B001900198C078C007D9
:1044600020B9FFE7019800F071F81EE001990420DF
:10447000487001990020C86040F21000C2F20000AC
:10448000416B019A9160406B40B1FFE7019840F2A7
:104490001001C2F20001496BC860FFE7019840F2C9
:1044A0001001C2F200014863FFE70198FCF746FAE9
:1044B00002B080BD80B584B00390FFF7F9F98DF8A4
:1044C0000B0000F09BF80190039810BBFFE740F24F
:1044D0001000C2F20000406A00909DF80B00022814
:1044E00016D1FFE7009898B1FFE7009890F92000F7
:1044F000019991F9201088420ADDFFE7009800F049
:1045000005F90198FFF7EEFD009800F025FAFFE7A6
:1045100019E09DF80B00022810D1FFE7039890F9ED
:104520002000019991F92010884207DDFFE70198EA
:10453000FFF7D8FD039800F00FFA03E0039800F0AE
:104540006BF9FFE7FFE704B080BD000080B582B0E3
:1045500001900198FFF7C2FD019900204870019970
:10456000087001988078800700281CD5FFE7019823
:104570008078C00600280BD5FFE740F21000C2F299
:104580000000D0F884000199096BFFF711FB09E0E6
:1045900040F21000C2F20000406F0199096BFFF772
:1045A00033FAFFE7FFE701988078C007E8B1FFE73B
:1045B00040F21000C2F20000D0F8880050B1FFE7CE
:1045C00040F21000C2F20000D0F888000199FFF715
:1045D000EFFA09E040F21000C2F20000D0F88000CB
:1045E0000199FFF711FAFFE7FFE702B080BD000075
:1045F00040F21000C2F200004069704740F2100023
:10460000C2F200004069704740F21000C2F20000A0
:104610004069704781B00090009801B07047000079
:1046200080B582B001900198806958B1FFE7019888
:1046300080690022114600F0E3F901988069FCF7D7
:1046400095F9FFE701984078232805D1FFE7019805
:10465000816800208861FFE702B080BD80B582B02C
:1046600001900198806800900098806801998860A6
:104670000098806838B1FFE7019800F0A5F800992C
:104680008968C860FFE700990020C860009802B000
:1046900080BD000080B586B005900491049890F923
:1046A00020000190059800F08FF80390039880682F
:1046B0000290FFE702990020009051B1FFE70298B5
:1046C00090F92010019A00209142A8BF012000908B
:1046D000FFE70098C00730B1FFE702980390029807
:1046E00080680290E6E703980499C86002980499EC
:1046F0008860049803998860029820B1FFE70498C5
:104700000299C860FFE706B080BD000081B000904C
:104710000098C06888B1FFE700998868C968886018
:104720000098806828B1FFE700988168C068C86079
:10473000FFE700990020C860FFE701B07047000064
:1047400082B0019001980090FFE700980078F1286E
:1047500004D1FFE70098C0680090F6E7009802B027
:104760007047000080B584B0039003980190FFE784
:1047700001990020009041B1FFE701980078F138DD
:10478000B0FA80F040090090FFE70098C00720B120
:10479000FFE70198C0680190EAE70198FFF714FC71
:1047A0000290029840B1FFE70398FFF7AFFF02982D
:1047B0000399FFF76FFFFFE704B080BD81B0009061
:1047C000009801B07047000081B00090009801B0DF
:1047D0007047000080B582B001900198407833287E
:1047E00018D1FFE70198416A90F82320FDF7CAFE2F
:1047F0000090009868B1FFE701980099002200F04E
:10480000FFF8019B586A93F82310009AFCF7A2F86E
:10481000FFE7FFE702B080BD80B582B0019001994B
:1048200001204870019940F21000C2F200001C30D3
:10483000FFF730FF02B080BD80B584B003900398CD
:10484000816B019190F82200FDF7A6FB01460198CB
:1048500008440290029804B080BD000081B000902E
:10486000009840F21001C2F20001486101B07047A7
:1048700081B00090009840F21001C2F2000148613E
:1048800001B0704782B000900098016B806B884245
:104890000AD9FFE70098006B006842F6A561CEF2E6
:1048A0005A21884204D0FFE700208DF8070003E07A
:1048B00001208DF80700FFE79DF8070002B0704760
:1048C00080B584B000218DF80F1046F20C60C0F660
:1048D00000000290826D43F67D00C0F6000000F0FB
:1048E000DBFFFFF797FE0146029840F21002C2F28A
:1048F00000029162406E20B3FFE746F20C60C0F602
:104900000000406E8047D8B9FFE746F20C60C0F661
:104910000000C26D006E40F21001C2F20001019170
:10492000C96C00F0B9FFFFF775FE0146019881647C
:10493000806C20B1FFE701208DF80F00FFE7FFE753
:1049400003E001208DF80F00FFE79DF80F0000F055
:10495000010004B080BD000080B582B001900199D3
:10496000022048700198C078C0F38000FDF764FA17
:10497000019840F21001C2F2000188610198FCF731
:1049800003F802B080BD000080B584B08DF80E0041
:104990000291FEF78DFF022804D0FFE700208DF87A
:1049A0000F0028E040F21000C2F20000406A20B977
:1049B000FFE700208DF80F001DE0FFF71FFE0190BC
:1049C00001980299FBF7AEFF9DF80E00019948701F
:1049D00001980299FFF7CAFB40F21000C2F20000F2
:1049E0001C30FFF73BFE01900198FFF7B5FF012057
:1049F0008DF80F00FFE79DF80F0004B080BD0000A8
:104A000080B584B0039002918DF807200398029935
:104A1000FBF7BEFF0398FFF70FFF00900298009985
:104A200008600398FFF720FC9DF80700C00720B13D
:104A3000FFE70398FFF73EFD03E00398FFF7ECFE66
:104A4000FFE704B080BD000080B584B0FDF724F816
:104A500040F21001C2F200010291C8680130C86042
:104A6000FFF750FC0020FFF725FD0298006D38B1DC
:104A7000FFE740F21000C2F20000006D8047FFE740
:104A800040F21000C2F20000006C002862D0FFE784
:104A900040F21001C2F20001886903900398C96BCB
:104AA000884213D0FFE7039840F21001C2F20001E0
:104AB000C8630398C06940B9FFE740F21000C2F232
:104AC0000000006C0399C861FFE7FFE70398C06925
:104AD00028B1FFE70399C8690138C861FFE7039867
:104AE000C069B0BBFFE7FEF7DDFE022830D1FFE76B
:104AF00040F21000C2F20000406A0390039830B305
:104B0000FFE7039890F9200040F21001C2F2000183
:104B1000C96B91F92010884219D1FFE70398FFF77C
:104B2000F5FD40F21000C2F200000190C06BFFF7EB
:104B300073FE0198C06BFBF723FF0398FFF70CFF90
:104B400001980399C163006C0399C861FFE7FFE70F
:104B5000FFE7FFE704B080BD80B582B04FF0FF30C3
:104B60000190FFF757F960B9FFE740F21001C2F278
:104B7000000144F6BD30C0F6000008650020019039
:104B8000FFE7019802B080BD86B0059005980190BE
:104B9000FFE7019803A900224FF0FF33FEF7CAFD9B
:104BA0000290029840B9FFE703980499FBF7F6FEDC
:104BB000039904988847FFE7EBE7000080B586B0CB
:104BC00040F21000C2F20000406C0490049808B952
:104BD000FFE75FE0FFF718FD0590049908690138C9
:104BE0000861FFE704990020019039B1FFE70498BC
:104BF0000069B0FA80F040090190FFE70198C00712
:104C0000002843D0FFE70498FDF74AFD40F210006A
:104C1000C2F20000C06C0499183100231A46FEF756
:104C2000C9FD03900398E0B1FFE7FFF7EDFC0290A8
:104C300040F21000C2F200008069FFF719FE0499EB
:104C40000320FEF721FEFFF7DFFC48B9FFE70598D8
:104C50000299884203D1FFE700200590FFE7FFE7B4
:104C6000FFE70498C078C00728B1FFE704984169BE
:104C7000FDF7C6FC03E0049901204870FFE740F20D
:104C80001000C2F20000406C0490ABE70598FFF7FB
:104C9000EFFDFFE706B080BD82B001900091009962
:104CA0000198884700F000F882B0FBF751FE45F606
:104CB0001500C0F600000190DDF804C000DF002000
:104CC0004FF0FF31FBF73EFEFFE7FEE780B58CB00B
:104CD00004900391029204980399029AFBF74AFE0A
:104CE000FBF7FEFF20B9FFE7FCF74CF848B1FFE700
:104CF000002000906FF00501FBF724FE0098019062
:104D00001AE0049A039902980B920A9109900B9861
:104D100008900A9807900998069045F69900C0F601
:104D200000000590DDF814C008980799069A00DF86
:104D3000089008980190FFE701980CB080BD000032
:104D400084B0029001910092029800680199884213
:104D50000AD1FFE7029840680099884204D1FFE732
:104D600001208DF80F0003E000208DF80F00FFE711
:104D70009DF80F0004B0704780B58CB00B90FFE732
:104D80000020ADF82800099008900790FFE70798E9
:104D900040F2FC11C2F200010968884209D2FFE723
:104DA000079A08A92A208854FFE70798013007903E
:104DB000EDE740F2FC10C2F2000000680690FFE749
:104DC0000698042809D8FFE7069A08A920208854E5
:104DD000FFE7069801300690F2E7002003908DF877
:104DE0002500694608A8486018200860D2221E23C2
:104DF00018461946FCF7B6FC03980590FFE705989E
:104E000003285DDCFFE700200490FFE704980228F8
:104E100051DCFFE70599049A40F2BC00C2F20000A1
:104E2000FFF78EFF10B3FFE7049BC3EB03111420C1
:104E300000EB8100059AC2EB021C8C2101EB8C0176
:104E400002EB42021A444BF22A3CC0F6000C4FF42B
:104E5000615302FB03C202F5E1526B461A6080B255
:104E600089B23C231A46FCF707FC1FE0049BC3EB06
:104E70000311142000EB8100059AC2EB021C8C2167
:104E800001EB8C0102EB42021A444BF22A3CC0F6C1
:104E9000000C4FF4615302FB03C26B461A6080B2F0
:104EA00089B23C231A46FCF7E7FBFFE7FFE70498CB
:104EB00001300490AAE7FFE70598013005909EE7CE
:104EC0000A20FEF7C3FB5BE780B586B00490049828
:104ED00040B9FFE76FF003000290FBF777FC029800
:104EE000059016E004991320FFF74EFD30B1FFE75F
:104EF0000498FBF76FFC0020039007E04FF0FF30B1
:104F00000190FBF763FC01980390FFE7039805907D
:104F1000FFE7059806B080BD80B58CB040F2100068
:104F2000C2F20000007A012805D1FFE7FBF766FC1A
:104F300000200B906FE140F21000C2F20000007AF6
:104F400040B1FFE74FF0FF300A90FBF74BFC0A98A7
:104F50000B9060E140F21000C2F2000009900830AE
:104F60009C21FBF77AF9099A46F20C61C0F6000120
:104F7000C868D065088AA2F8540088681064C86AB6
:104F8000096BFEF7A3FD60B1FFE746F20C60C0F6C7
:104F90000000C06A40F21001C2F20001C1F88000B6
:104FA000FFE746F20C61C0F6000148698969FEF727
:104FB0008DFD58B1FFE746F20C60C0F60000406975
:104FC00040F21001C2F20001486707E040F2100110
:104FD000C2F20001D1F880004867FFE746F20C6199
:104FE000C0F60001C869096AFEF770FD58B1FFE715
:104FF00046F20C60C0F60000C06940F21001C2F237
:105000000001886707E040F21001C2F20001D1F808
:1050100080008867FFE746F20C61C0F60001486A2D
:10502000896AFEF753FD58B1FFE746F20C60C0F6FF
:105030000000406A40F21001C2F20001C86707E0B8
:1050400040F21001C2F20001D1F88000C867FFE70A
:1050500046F20C60C0F60000406BA0B1FFE746F2DC
:105060000C60C0F600000890406B01688268C3685D
:10507000FEF7D0FD0898406B40F21001C2F200012B
:10508000C1F88400FFE746F20C60C0F60000806BB8
:10509000A0B1FFE746F20C60C0F600000790806BFD
:1050A00001688268C368FEF7B5FD0798806B40F21F
:1050B0001001C2F20001C1F88800FFE746F20C605F
:1050C000C0F60000C06BA0B1FFE746F20C60C0F66E
:1050D00000000690C06B01688268C368FEF79AFD05
:1050E0000698C06B40F21001C2F20001C1F88C00BA
:1050F000FFE746F20C60C0F60000006CA0B1FFE7CD
:1051000046F20C60C0F600000590006C01688268F1
:10511000C368FEF77FFD0598006C40F21001C2F2F3
:105120000001C1F89000FFE746F20C60C0F60000F5
:10513000406CA0B1FFE746F20C60C0F6000004909E
:10514000406C01688268C368FEF764FD0498406C97
:1051500040F21001C2F20001C1F89400FFE746F2EC
:105160000C60C0F60000806CA0B1FFE746F20C6056
:10517000C0F600000390806C01688268C368FEF787
:1051800049FD0398806C40F21001C2F20001C1F8A1
:105190009800FFE746F20C60C0F60000C06CA0B1BA
:1051A000FFE746F20C60C0F600000290C06C016898
:1051B0008268C368FEF72EFD0298C06C40F21001B1
:1051C000C2F20001C1F89C00FFE746F20C60C0F695
:1051D0000000006DA0B1FFE746F20C60C0F60000D1
:1051E0000190006D01688268C368FEF713FD0198A5
:1051F000006D40F21001C2F20001C1F8A000FFE70B
:1052000040F21001C2F2000101200872FBF7F6FA29
:1052100000200B90FFE70B980CB080BD80B586B0E6
:1052200040F21000C2F20000007A012808D0FFE727
:105230006FF00700FBF7D6FA4FF0FF3005903CE027
:10524000FFF73EFB40B9FFE74FF0FF300390FBF75D
:10525000C9FA0398059030E0FCF7BEFD46F20C60F9
:10526000C0F60000406840F2E711C0F60001FCF70C
:105270003BFC40B1FFE74FF0FF300290FBF7B2FA82
:105280000298059019E0FCF72BFC40F21001C2F2E5
:10529000000101910861FCF705FC01981C30FFF743
:1052A000DDF904900498FFF757FB0199022008727A
:1052B000FBF7A8FA00200590FFE7059806B080BD2F
:1052C00080B58EB00C900B910A9209930C98FEF762
:1052D000F9FC08900898FBF76DFD40B1FFE70898CE
:1052E0000078FA2803D1FFE70B9848B9FFE7089840
:1052F0006FF003010291FBF7B9FA02980D9090E06C
:105300000898FCF7D3FA0790079800285CD0FFE7CD
:1053100008980799FCF74AFB0B9807990C31089AF3
:10532000526AFAF781FF0A9828B1FFE70798C07818
:105330000A990870FFE708980B99FBF7D9FA0799C3
:105340000020087008980C300799FEF731FC089887
:105350008068B0B3FFE708980C30FEF703FC0790B5
:10536000079868B3FFE70898FEF71CFEFFF776F989
:1053700006900698002101910122FFF741FB069853
:10538000FFF75AFA059005984068049007980C308A
:105390000499089A526AFAF747FF0198079AF92187
:1053A000117007998870059880680799C8700898E7
:1053B0000799FCF7A5FA08980499FBF775FAFFE737
:1053C000FFE70020039029E00998F0B1FFE7089873
:1053D0000B99099AFBF758FA09998320FFF7D4FA39
:1053E00058B1FFE70898FEF7DDFD0090FFF700F9E0
:1053F00001460098FFF74EF903E00898FBF74AFAD8
:10540000FFE76FF00100039007E008980B99FBF7A6
:1054100057FA6FF002000390FFE7FFE703980D9043
:10542000FFE70D980EB080BD80B594B010900F913D
:105430000E92109888B1FFE70F9870B1FFE71098AF
:1054400013901398B0FA80F00F9912911299B1FA53
:1054500081F108441F2809D8FFE7002005906FF06C
:105460000301FBF703FA0598119022E10F9803302E
:1054700020F003000C3009901098099948430890D7
:105480000E98002868D0FFE70E98006806900E98E6
:1054900040680C900E9880680D900E9800690B90F3
:1054A0000E9840690A909DF83200C006002809D580
:1054B000FFE7002004906FF00601FBF7D7F904988E
:1054C0001190F6E00D98A0B1FFE70D98FBF772FC84
:1054D00028B1FFE70E98C068342809D0FFE7002004
:1054E00003906FF00901FBF7C1F903981190E0E018
:1054F0000DE00E98C06848B1FFE7002002906FF001
:105500000901FBF7B3F902981190D2E0FFE70B987D
:10551000A0B1FFE79DF82C00800728B9FFE70A98A3
:105520000899884209D2FFE7002001906FF00A0134
:10553000FBF79CF901981190BBE00CE00A9848B188
:10554000FFE7002000906FF00A01FBF78FF9009849
:105550001190AEE0FFE704E0002006900D900B9064
:10556000FFE70D9810BBFFE740F21000C2F2000009
:10557000D0F8A00050B1FFE740F21000C2F20000E6
:10558000D0F8A000FEF7EEFA0D900BE040F210000C
:10559000C2F20000D0F8800034210122FEF78EF91B
:1055A0000D90FFE701208DF81F0003E000208DF82B
:1055B0001F00FFE70D98002842D0FFE70B98002856
:1055C0003ED1FFE740F21000C2F20000C06F089920
:1055D0000022FEF773F90B900B9828BBFFE79DF8AC
:1055E0001F00C007E8B1FFE740F21000C2F2000060
:1055F000D0F8A00050B1FFE740F21000C2F2000066
:10560000D0F8A0000D99FEF7D3FA09E040F210009F
:10561000C2F20000D0F880000D99FEF7F5F9FFE71F
:10562000FFE700200D9004E00B980899FAF715FEAB
:10563000FFE79DF81F0040F002008DF81F00FFE714
:105640000D9868B3FFE70D99FA2008709DF81F00C8
:105650000D9988700D990020C87006990D9A5160B7
:105660000D9988600F990D9A51620D9988620D9974
:10567000C8620D9908630D980C301099099A0B9B1C
:10568000FEF7C8FA40F21001C2F2000143F6D14021
:10569000C0F6000008670D984168FBF7E1F805E0E7
:1056A00000206FF00401FBF7E1F8FFE70D9811907F
:1056B000FFE7119814B080BD80B58EB00C900B91AF
:1056C0008DF82B2009930C98FEF7FCFA08900898A7
:1056D000FBF770FB40B1FFE708980078FA2803D188
:1056E000FFE70B9848B9FFE708986FF003010291B4
:1056F000FBF7BCF802980D9089E00898806898B391
:10570000FFE708988068407883282DD1FFE7089844
:105710000B99FBF7C9F80898FEF744FCFEF79EFFCB
:105720000690069800210122FFF76AF90698FFF714
:1057300083F8059005984068049004980B99089A9E
:10574000526AFAF771FD0598806830B1FFE79DF85D
:105750002B00059989680870FFE708980499FBF702
:10576000C7F8002003904FE008980C30FEF7FAF9D4
:1057700007900798E8B1FFE707980C300B99089A53
:10578000526AFAF751FD0799F9200870079900202D
:10579000019088709DF82B000799C87008980799A8
:1057A000FCF7AEF808980B99FBF77EF80198039088
:1057B00029E00998F0B1FFE708980B99099AFBF7DF
:1057C0008DF809999320FFF7DFF858B1FFE70898A3
:1057D000FEF7E8FB0090FEF70BFF01460098FEF78E
:1057E00059FF03E00898FBF77FF8FFE76FF001002F
:1057F000039007E008980B99FBF75CF86FF0020044
:105800000390FFE7FFE7FFE703980D90FFE70D9890
:105810000EB080BD80B582B0FEF74AF8022807D1ED
:10582000FFE740F21000C2F20000406A08B9FFE74B
:1058300030E0FEF7E3FE00900098C06AFEF710FB30
:105840000098FEF7EDFE40F21000C2F200001C309E
:10585000FEF704FFFFF780F8EFF30980019001984D
:10586000009988630098FFF70DF860B9FFE740F2F0
:105870001000C2F200008069FEF7F0FF00990120DD
:10588000FEF702F8FFE70020FEF7E8FF0098FEF7BA
:10589000E1FDFFE702B080BD80B596B01490139192
:1058A0001292149848B9FFE7002008906FF00301A6
:1058B000FBF748F80898159020E21298002800F0AD
:1058C0008A80FFE7129800680B9012984068109049
:1058D000129880681190129800690F901298406990
:1058E0000E90129880690D909DF8400040070028A6
:1058F0000FD5FFE79DF840008007002809D5FFE796
:10590000002007906FF00301FBF71CF80798159033
:10591000F4E19DF84200C006002809D5FFE7002009
:1059200006906FF00601FBF70DF806981590E5E17B
:105930001198A0B1FFE71198FBF74EFA28B1FFE7E5
:105940001298C068502809D0FFE7002005906FF03A
:105950000901FAF7F7FF05981590CFE10DE01298CD
:10596000C06848B1FFE7002004906FF00901FAF722
:10597000E9FF04981590C1E1FFE70F9890B1FFE7A8
:105980009DF83C00400718B9FFE70E9848B9FFE7BB
:10599000002003906FF00B01FAF7D4FF03981590E5
:1059A000ACE1FFE70D9818B9FFE718200D9011E062
:1059B0000D98012804DBFFE70D98392809DBFFE784
:1059C000002002906FF00C01FAF7BCFF02981590CE
:1059D00094E1FFE708E000200B90109011900F90E9
:1059E0000E9018200D90FFE79DF8400010F0060F74
:1059F00013D1FFE746F20C60C0F600000078C00744
:105A000028B1FFE7109840F00400109004E01098CF
:105A100040F002001090FFE7FFE70E98C0B1FFE7EB
:105A20009DF83800400748B9FFE70E98482805D38D
:105A3000FFE70E98B0F1FF3F09DCFFE7002001907F
:105A40006FF00B01FAF77EFF0198159056E1FFE722
:105A5000119810BBFFE740F21000C2F20000D0F82E
:105A6000880050B1FFE740F21000C2F20000D0F809
:105A70008800FEF777F811900BE040F21000C2F2B8
:105A80000000D0F8800050210122FDF717FF11908F
:105A9000FFE701208DF8330003E000208DF833008C
:105AA000FFE7119800286FD0FFE70F9800286BD10F
:105AB000FFE70E9870BBFFE746F20C60C0F60000EF
:105AC000406D0E9040F21000C2F20000D0F8840049
:105AD000A0B1FFE740F21000C2F20000D0F884004D
